{
  "_format": "hh-sol-artifact-1",
  "contractName": "Champion",
  "sourceName": "contracts/Champion.sol",
  "abi": [
    {
      "inputs": [
        {
          "internalType": "uint8",
          "name": "_agreement",
          "type": "uint8"
        }
      ],
      "stateMutability": "nonpayable",
      "type": "constructor"
    },
    {
      "inputs": [],
      "name": "get_agreement",
      "outputs": [
        {
          "internalType": "uint8",
          "name": "",
          "type": "uint8"
        }
      ],
      "stateMutability": "view",
      "type": "function"
    },
    {
      "inputs": [
        {
          "internalType": "uint8",
          "name": "new_agreement",
          "type": "uint8"
        }
      ],
      "name": "set_agreement",
      "outputs": [],
      "stateMutability": "nonpayable",
      "type": "function"
    }
  ],
  "bytecode": "0x608060405234801561001057600080fd5b5060405161062938038061062983398181016040528101906100329190610119565b8060648160ff1610610079576040517f08c379a0000000000000000000000000000000000000000000000000000000008152600401610070906101c9565b60405180910390fd5b81600060146101000a81548160ff021916908360ff160217905550336000806101000a81548173ffffffffffffffffffffffffffffffffffffffff021916908373ffffffffffffffffffffffffffffffffffffffff16021790555050506101e9565b600080fd5b600060ff82169050919050565b6100f6816100e0565b811461010157600080fd5b50565b600081519050610113816100ed565b92915050565b60006020828403121561012f5761012e6100db565b5b600061013d84828501610104565b91505092915050565b600082825260208201905092915050565b7f61677265656d656e742063616e206265206265747765656e2030207570746f2060008201527f3130300000000000000000000000000000000000000000000000000000000000602082015250565b60006101b3602383610146565b91506101be82610157565b604082019050919050565b600060208201905081810360008301526101e2816101a6565b9050919050565b610431806101f86000396000f3fe608060405234801561001057600080fd5b50600436106100365760003560e01c8063504e41831461003b57806354d0e86114610057575b600080fd5b61005560048036038101906100509190610203565b610075565b005b61005f6101af565b60405161006c919061023f565b60405180910390f35b60008054906101000a900473ffffffffffffffffffffffffffffffffffffffff1673ffffffffffffffffffffffffffffffffffffffff163373ffffffffffffffffffffffffffffffffffffffff1614610103576040517f08c379a00000000000000000000000000000000000000000000000000000000081526004016100fa906102b7565b60405180910390fd5b8060648160ff161061014a576040517f08c379a000000000000000000000000000000000000000000000000000000000815260040161014190610349565b60405180910390fd5b60648260ff1610610190576040517f08c379a0000000000000000000000000000000000000000000000000000000008152600401610187906103db565b60405180910390fd5b81600060146101000a81548160ff021916908360ff1602179055505050565b60008060149054906101000a900460ff16905090565b600080fd5b600060ff82169050919050565b6101e0816101ca565b81146101eb57600080fd5b50565b6000813590506101fd816101d7565b92915050565b600060208284031215610219576102186101c5565b5b6000610227848285016101ee565b91505092915050565b610239816101ca565b82525050565b60006020820190506102546000830184610230565b92915050565b600082825260208201905092915050565b7f4f6e6c79206f776e65722063616e206368616e67650000000000000000000000600082015250565b60006102a160158361025a565b91506102ac8261026b565b602082019050919050565b600060208201905081810360008301526102d081610294565b9050919050565b7f61677265656d656e742063616e206265206265747765656e2030207570746f2060008201527f3130300000000000000000000000000000000000000000000000000000000000602082015250565b600061033360238361025a565b915061033e826102d7565b604082019050919050565b6000602082019050818103600083015261036281610326565b9050919050565b7f6e65775f61677265656d656e742063616e206265206265747765656e2030207560008201527f70746f2031303000000000000000000000000000000000000000000000000000602082015250565b60006103c560278361025a565b91506103d082610369565b604082019050919050565b600060208201905081810360008301526103f4816103b8565b905091905056fea2646970667358221220f1711de818ee84bbcb4fff88f9a1cf1606044017a1fd17bf38ab3147a2a6de8b64736f6c63430008110033",
  "linkReferences": {},
  "deployedLinkReferences": {}
}